:100000000C9462000C948A000C948A000C948A0070
:100010000C948A000C948A000C948A000C948A0038
:100020000C948A000C948A000C948A000C948A0028
:100030000C948A000C948A000C948A000C948A0018
:100040000C9468060C948A000C94A8030C94DA03B0
:100050000C948A000C948A000C948A000C948A00F8
:100060000C948A000C948A00000000070002010032
:100070000003040600000000000000000102040864
:100080001020408001020408102001020408102002
:10009000040404040404040402020202020203032E
:1000A00003030303000000002300260029000000D2
:1000B0000000250028002B0000000000240027007D
:1000C0002A000A0411241FBECFEFD8E0DEBFCDBF47
:1000D00011E0A0E0B1E0EAE1FAE102C005900D9282
:1000E000A034B107D9F721E0A0E4B1E001C01D922E
:1000F000AA3EB207E1F710E0C2E6D0E004C02197C3
:10010000FE010E94A90CC136D107C9F70E9437042D
:100110000C940B0D0C9400008EBD0DB407FEFDCFAA
:100120008EB508950F931F93CF93DF93C82F8B0144
:1001300042E050E0682F80E491E00E94210566E0F3
:1001400071E080E491E00E948F04CC0FCC0F42E07C
:1001500050E06C2F80E491E00E94280560E087E089
:100160000E949F078C2F0E948C0080E00E948C00D0
:10017000C82FD0E00230110534F0DC2FCC2780E00E
:100180000E948C00C82B61E087E00E949F07CE018F
:10019000DF91CF911F910F910895CF93DF93C82FD7
:1001A000D62F60E087E00E949F078C2F880F880F72
:1001B00082600E948C008D2F0E948C0061E087E09D
:1001C000DF91CF910C949F0726E040E855E260E074
:1001D00070E080E491E00E9443030E94FF0860E029
:1001E00086E00E94630761E087E00E9463076DE29A
:1001F00082E00E94CD0063E081E00E94CD0062E0D9
:1002000083E00E94CD0064E670E080E090E00C9412
:10021000D7060F931F93CF93DF93CDB7DEB72C97FD
:100220000FB6F894DEBF0FBECDBF6AE083E00E9438
:10023000CD0086E00E94CE07019709F050C062E031
:1002400070E081E20E9492008C0168E071E080E43D
:1002500091E00E948F04B801110F880B990B0E9446
:10026000EE0120E030E040EA51E40E947A01AB0167
:10027000BC0122E030E080E491E00E94660661E08B
:1002800070E08FE10E94920062E070E080E20E94E4
:1002900092009695879596958795AC0160E070E001
:1002A0002AE0CE0107960E94910861E171E0CE013B
:1002B00001960E946508BE01695F7F4FCE010196DD
:1002C0000E94EC08BC0180E491E00E94AC04CE01E5
:1002D00001960E94F707CE0107960E94F7072C9619
:1002E0000FB6F894DEBF0FBECDBFDF91CF911F9147
:1002F0000F9108950E948E010C9440020E943902D1
:1003000058F00E94320240F029F45F3F29F00C942B
:10031000290251110C9474020C942F020E94510274
:1003200068F39923B1F3552391F3951B550BBB2724
:10033000AA2762177307840738F09F5F5F4F220F69
:10034000331F441FAA1FA9F335D00E2E3AF0E0E860
:1003500032D091505040E695001CCAF72BD0FE2FAA
:1003600029D0660F771F881FBB1F2617370748073E
:10037000AB07B0E809F0BB0B802DBF01FF279358F6
:100380005F4F3AF09E3F510578F00C9429020C948F
:1003900074025F3FE4F3983ED4F3869577956795B2
:1003A000B795F7959F5FC9F7880F911D969587952B
:1003B00097F90895E1E0660F771F881FBB1F62174A
:1003C00073078407BA0720F0621B730B840BBA0B08
:1003D000EE1F88F7E0950895E89409C097FB3EF476
:1003E00090958095709561957F4F8F4F9F4F992382
:1003F000A9F0F92F96E9BB279395F6958795779500
:100400006795B795F111F8CFFAF4BB0F11F460FFBF
:100410001BC06F5F7F4F8F4F9F4F16C0882311F017
:1004200096E911C0772321F09EE8872F762F05C02B
:10043000662371F096E8862F70E060E02AF09A95C6
:10044000660F771F881FDAF7880F9695879597F9BB
:10045000089597F99F6780E870E060E008959FEF46
:1004600080EC089500240A9416161706180609064B
:10047000089500240A94121613061406050608951A
:10048000092E0394000C11F4882352F0BB0F40F4A2
:10049000BF2B11F460FF04C06F5F7F4F8F4F9F4FE2
:1004A000089557FD9058440F551F59F05F3F71F064
:1004B0004795880F97FB991F61F09F3F79F08795CB
:1004C0000895121613061406551FF2CF4695F1DF54
:1004D00008C0161617061806991FF1CF86957105E4
:1004E000610508940895E894BB2766277727CB0118
:1004F00097F90895FC01918D228D892F90E0805C01
:100500009F4F821B910960E470E00E945F0C089588
:10051000FC01918D828D981731F0828DE80FF11DCD
:10052000858D90E008958FEF9FEF0895FC01918DE8
:10053000828D981761F0828DDF01A80FB11D5D9645
:100540008C91928D9F5F9F73928F90E008958FEFB3
:100550009FEF089580E094E0892B49F080E090E0DF
:10056000892B29F00E94000481110C940000089549
:10057000FC01848DDF01A80FB11DA35ABF4F2C9140
:10058000848D90E001968F739927848FA689B7890F
:100590002C93A089B1898C9180648C93938D848DE8
:1005A000981306C00288F389E02D80818F7D8083B7
:1005B0000895EF92FF920F931F93CF93DF93EC0177
:1005C0009B8D8C8D981305C0E889F989808185FD04
:1005D00027C0F62E0B8D10E00F5F1F4F0F731127F2
:1005E000E02E8C8DE8120CC00FB607FCFACFE8891C
:1005F000F989808185FFF5CFCE010E94B802F1CF45
:100600008B8DFE01E80FF11DE35AFF4FF0820B8F37
:10061000EA89FB8980818062808381E0888F08C0BD
:10062000EE89FF896083E889F9898081806480830D
:1006300081E090E0DF91CF911F910F91FF90EF90BB
:100640000895CF93DF93EC01888D8823C9F0EA8960
:10065000FB89808185FD05C0A889B9898C9186FDBB
:100660000FC00FB607FCF5CF808185FFF2CFA889B8
:10067000B9898C9185FFEDCFCE010E94B802E7CFFA
:10068000DF91CF910895CF92DF92EF92FF921F9367
:10069000CF93DF93EC016A017B01122FE889F9897E
:1006A00082E080834115514E61057105B1F060E033
:1006B00079E08DE390E0A70196010E94730CDA01C6
:1006C000C9010197A109B109B695A7959795879595
:1006D0009C01211580E13807A8F0E889F98910828A
:1006E00060E874E88EE190E0A70196010E94730C27
:1006F000DA01C9010197A109B109B695A7959795A6
:1007000087959C01EC85FD853083EE85FF852083F0
:10071000188EEC89FD891083EA89FB8980818061CC
:100720008083EA89FB89808188608083EA89FB89EC
:10073000808180688083EA89FB8980818F7D8083C6
:10074000DF91CF911F91FF90EF90DF90CF900895B0
:100750001F920F920FB60F9211242F938F939F9396
:10076000EF93FF93E0915001F09151018081E0916E
:100770005601F091570182FD12C09081809159017C
:100780008F5F8F7320915A01821751F0E0915901C8
:10079000F0E0E05CFE4F958F8093590101C08081AD
:1007A000FF91EF919F918F912F910F900FBE0F901E
:1007B0001F9018951F920F920FB60F9211242F932E
:1007C0003F934F935F936F937F938F939F93AF93D9
:1007D000BF93EF93FF9380E491E00E94B802FF91F2
:1007E000EF91BF91AF919F918F917F916F915F91A9
:1007F0004F913F912F910F900FBE0F901F90189522
:1008000080E491E00E947A0221E0892B09F420E043
:10081000822F0895E0E4F1E01382128288EE93E0E3
:10082000A0E0B0E084839583A683B78385E291E05E
:100830009183808385EC90E09587848784EC90E0B9
:100840009787868780EC90E0918B808B81EC90E09D
:10085000938B828B82EC90E0958B848B86EC90E07E
:10086000978B868B118E128E138E148E08950E9494
:10087000FF060E94E400CAEAD2E00E940901209724
:10088000E1F30E94AA02F9CFCF92DF92EF92FF929A
:100890000F931F93CF93DF936C01EB017B01E40E69
:1008A000F51E00E010E0CE15DF0561F06991D6017C
:1008B000ED91FC910190F081E02DC6010995080FA2
:1008C000191FF1CFC801DF91CF911F910F91FF90B8
:1008D000EF90DF90CF9008956115710579F0FB01DD
:1008E00001900020E9F73197AF01461B570BDC015F
:1008F000ED91FC910280F381E02D099480E090E07D
:100900000895DB0114964D915C9115976D917C9142
:10091000DC01ED91FC910280F381E02D09940C94AF
:100920006C04DC01ED91FC910190F081E02D0994C3
:100930000F931F93CF93DF93EC016DE00E9491041E
:100940008C016AE0CE010E949104800F911FDF911B
:10095000CF911F910F9108950F931F93CF93DF9322
:10096000EC010E9481048C01CE010E949804800F4A
:10097000911FDF91CF911F910F9108958F929F92B8
:10098000AF92BF92CF92DF92EF92FF920F931F939D
:10099000CF93DF93CDB7DEB7A1970FB6F894DEBF44
:1009A0000FBECDBF6C01142FE52FCB01022F19A272
:1009B000223008F40AE07E0121E2E20EF11C802ED2
:1009C000912CA12CB12C612F7E2FA50194010E94A6
:1009D000730C029F1019112481E0E81AF1081A30F3
:1009E00010F4105D01C0195CF7011083122FE32F82
:1009F000CA01232B242B252B31F7B701C6010E94F6
:100A00006C04A1960FB6F894DEBF0FBECDBFDF9188
:100A1000CF911F910F91FF90EF90DF90CF90BF90FB
:100A2000AF909F908F9008952115310541F4DC011E
:100A3000ED91FC910190F081E02D642F09940C94CC
:100A4000BE049A01462F50E060E070E00C9414055B
:100A50000F931F93CF93DF93EC010E9421058C012C
:100A6000CE010E949804800F911FDF91CF911F91BA
:100A70000F910895CF92DF92EF92FF920F931F9301
:100A8000CF93DF932115310581F4DC01ED91FC91C9
:100A90000190F081E02D642FDF91CF911F910F9194
:100AA000FF90EF90DF90CF9009942A30310501F547
:100AB00077FF1DC06A017B01EC016DE20E94910489
:100AC0008C0144275527BA014C195D096E097F092D
:100AD0002AE0CE010E94BE04800F911FDF91CF91CA
:100AE0001F910F91FF90EF90DF90CF9008952AE033
:100AF000DF91CF911F910F91FF90EF90DF90CF90FA
:100B00000C94BE049A01AB01770F660B770B0C9423
:100B10003A057F928F929F92AF92BF92CF92DF92CF
:100B2000EF92FF920F931F93CF93DF938C016A0193
:100B30007B01722E9A01AB01C701B6010E945A0CCB
:100B4000882319F061E371E027C046015701E8945A
:100B5000B7F82FEF3FEF4FE75FE7C501B4010E9401
:100B60005A0C81110DC02FEF3FEF4FE75FE7C50132
:100B7000B4010E94890B18161CF465E371E00CC0E7
:100B80002FEF3FEF4FE75FE4C701B6010E94E80B8C
:100B9000181694F469E371E0C801DF91CF911F91B9
:100BA0000F91FF90EF90DF90CF90BF90AF909F900C
:100BB0008F907F900C946C042FEF3FEF4FE75FEC2A
:100BC000C701B6010E94890B87FDE4CF20E030E029
:100BD000A901C701B6010E94890B87FF0AC06DE217
:100BE000C8010E949104EC01F7FAF094F7F8F09430
:100BF00002C0C0E0D0E0B12C60E070E080E09FE394
:100C00007B1441F020E030E040E251E40E947A01A0
:100C1000B394F6CFA70196010E941D0B6B017C01D6
:100C20000E94950B4B015C012AE0AB01BC01C8019D
:100C30000E94BE04C80FD91F7720C9F1C501B401B5
:100C40000E94EC019B01AC01C701B6010E941C0B84
:100C50006B017C016DE371E0C8010E946C04C80F58
:100C6000D91F20E030E040E251E4C701B6010E9404
:100C7000ED0B4B015C010E948E0B6B017C014AE085
:100C800050E0C8010E948205C80FD91FB601DD0CD3
:100C9000880B990B0E94EE019B01AC01C501B401C8
:100CA0000E941C0B6B017C017A947110DACFCE018B
:100CB000DF91CF911F910F91FF90EF90DF90CF9038
:100CC000BF90AF909F908F907F9008950C9489056E
:100CD0001F920F920FB60F9211242F933F938F9371
:100CE0009F93AF93BF938091DE019091DF01A0911C
:100CF000E001B091E1013091DD0123E0230F2D37B8
:100D000020F40196A11DB11D05C026E8230F02960F
:100D1000A11DB11D2093DD018093DE019093DF01C1
:100D2000A093E001B093E1018091E2019091E30191
:100D3000A091E401B091E5010196A11DB11D809340
:100D4000E2019093E301A093E401B093E501BF9128
:100D5000AF919F918F913F912F910F900FBE0F9068
:100D60001F9018953FB7F8948091E2019091E301AC
:100D7000A091E401B091E50126B5A89B05C02F3FE5
:100D800019F00196A11DB11D3FBFBA2FA92F982FB1
:100D90008827820F911DA11DB11DBC01CD0142E02C
:100DA000660F771F881F991F4A95D1F70895CF9234
:100DB000DF92EF92FF92CF93DF936B017C010E9451
:100DC000B206EB01C114D104E104F10489F00E94E0
:100DD0001B0B0E94B2066C1B7D0B683E734090F3A8
:100DE00081E0C81AD108E108F108C851DC4FEACF08
:100DF000DF91CF91FF90EF90DF90CF90089578949E
:100E000084B5826084BD84B5816084BD85B582600F
:100E100085BD85B5816085BDEEE6F0E080818160AD
:100E20008083E1E8F0E010828081826080838081AD
:100E300081608083E0E8F0E0808181608083E1EB85
:100E4000F0E0808184608083E0EBF0E0808181606D
:100E50008083EAE7F0E08081846080838081826023
:100E6000808380818160808380818068808310920C
:100E7000C1000895833081F028F4813099F08230E8
:100E8000A1F008958630A9F08730B9F08430D1F40C
:100E9000809180008F7D03C0809180008F77809348
:100EA0008000089584B58F7702C084B58F7D84BD9E
:100EB00008958091B0008F7703C08091B0008F7D3E
:100EC0008093B0000895CF93DF9390E0FC01E45845
:100ED000FF4F2491FC01E057FF4F8491882361F17B
:100EE00090E0880F991FFC01E854FF4FC591D49101
:100EF000FC01E255FF4FA591B491611109C09FB764
:100F0000F8948881209582238883EC912E230BC04E
:100F1000623061F49FB7F8948881322F3095832333
:100F20008883EC912E2B2C939FBF06C08FB7F8942B
:100F3000E8812E2B28838FBFDF91CF9108951F93D7
:100F4000CF93DF93282F30E0F901E859FF4F8491C8
:100F5000F901E458FF4FD491F901E057FF4FC491D4
:100F6000CC23C1F0162F81110E943A07EC2FF0E03C
:100F7000EE0FFF1FE255FF4FA591B4919FB7F89474
:100F8000111104C08C91D095D82302C0EC91DE2BB6
:100F9000DC939FBFDF91CF911F910895CF93DF9393
:100FA000282F30E0F901E859FF4F8491F901E45806
:100FB000FF4FD491F901E057FF4FC491CC2391F03A
:100FC00081110E943A07EC2FF0E0EE0FFF1FEC5565
:100FD000FF4FA591B491EC91ED2381E090E021F4D5
:100FE00080E002C080E090E0DF91CF910895FC01A5
:100FF000808191810C94AD09CF93DF93EC018881BE
:101000009981009711F00E94AD09198218821D8202
:101010001C821B821A82DF91CF9108950F931F9338
:10102000CF93DF93EC018B016F5F7F4F88819981B4
:101030000E94360A009731F0998388831B830A83C4
:1010400081E001C080E0DF91CF911F910F91089561
:10105000CF93DF93EC0188819981892B29F08A81D4
:101060009B818617970760F4CE010E940E088823A3
:1010700041F08C819D81892B19F4E881F9811082DE
:1010800081E0DF91CF910895EF92FF920F931F932C
:10109000CF93DF93EC017B018A01BA010E942808FB
:1010A000811104C0CE010E94FC0707C01D830C8380
:1010B000B701888199810E94B80CCE01DF91CF9150
:1010C0001F910F91FF90EF900895FC011182108203
:1010D00013821282158214826115710551F0FB0191
:1010E00001900020E9F73197AF01461B570B0C9494
:1010F00044080895CF93DF93EC016115710559F011
:10110000FB0101900020E9F73197AF01461B570B17
:101110000E94440802C00E94FC07CE01DF91CF91DB
:1011200008950F931F93CF93DF93CDB7DEB7A297A8
:101130000FB6F894DEBF0FBECDBF8C01CB01BA0154
:10114000F80111821082138212821582148230E01B
:10115000AE014F5F5F4F0E94BF0CBE016F5F7F4FBC
:10116000C8010E947A08A2960FB6F894DEBF0FBE9F
:10117000CDBFDF91CF911F910F910895EF92FF9214
:101180000F931F93CF93DF936115710511F480E0E6
:101190001CC041155105C1F07B01EC018C819D8182
:1011A0008A01080F191FB801CE010E942808882360
:1011B00071F3288139818C819D81B701820F931F42
:1011C0000E94B80C1D830C8381E0DF91CF911F91A9
:1011D0000F91FF90EF900895CF93DF93EC01FB0107
:1011E00044815581608171810E94BE08811103C0D4
:1011F000CE010E94FC07CE01DF91CF91089561E0FE
:101200008AE00E949F0761E08AE00E9463078CB534
:1012100080618CBD8CB580648CBD61E08DE00E94E6
:10122000630761E08BE00C9463070F931F93CF93E8
:10123000DF938230910510F482E090E0E091E801C4
:10124000F091E90120E030E0A0E0B0E0309719F142
:10125000408151810281138148175907C8F08417D2
:10126000950769F4109731F012960C931297139624
:101270001C9327C00093E8011093E90122C02115B7
:10128000310519F04217530718F49A01BD01EF0117
:10129000DF01F801DBCF21153105F9F0281B390BEF
:1012A0002430310580F48A819B816115710521F01C
:1012B000FB019383828304C09093E9018093E8014A
:1012C000FE01329644C0FE01E20FF31F8193919319
:1012D00022503109398328833AC02091E6013091A8
:1012E000E701232B41F42091020130910301309357
:1012F000E7012093E60120910001309101012115C1
:10130000310541F42DB73EB74091040150910501DC
:10131000241B350BE091E601F091E701E217F3079A
:10132000A0F42E1B3F0B2817390778F0AC014E5F55
:101330005F4F2417350748F04E0F5F1F5093E701AA
:101340004093E6018193919302C0E0E0F0E0CF0189
:10135000DF91CF911F910F910895CF93DF93009765
:1013600009F481C0FC01329713821282A091E80136
:10137000B091E901109781F420813181820F931F90
:101380002091E6013091E7012817390751F5F093D4
:10139000E701E093E60167C0ED0120E030E0CE1701
:1013A000DF0740F44A815B819E0141155105F1F050
:1013B000EA01F5CFD383C28340815181840F951F09
:1013C000C817D90759F488819981840F951F02960F
:1013D000918380838A819B81938382832115310548
:1013E00029F4F093E901E093E8013DC0E901FB83B2
:1013F000EA8349915991C40FD51FEC17FD0761F499
:1014000080819181840F951F0296E90199838883D9
:10141000828193819B838A83E0E0F0E012968D9134
:101420009C911397009719F0FD01DC01F7CF8D9186
:101430009C9111979D012E5F3F4F820F931F20912A
:10144000E6013091E7012817390769F4309729F44C
:101450001092E9011092E80102C013821282B09347
:10146000E701A093E601DF91CF9108956F927F92FB
:101470008F929F92AF92BF92CF92DF92EF92FF92A4
:101480000F931F93CF93DF93009789F4CB01DF91E4
:10149000CF911F910F91FF90EF90DF90CF90BF9071
:1014A000AF909F908F907F906F900C941509FC01E6
:1014B000E60FF71F9C0122503109E217F30708F4E9
:1014C000A9C0EC01D9010D911C91119706171707BE
:1014D000B0F00530110508F49BC0C80104978617C9
:1014E000970708F495C002501109061B170B0193CA
:1014F00011936D937C93CF010E94AD0989C05B016C
:10150000A01AB10A4C01800E911EA091E801B09181
:10151000E901612C712CE12CF12C109709F446C0E3
:101520008D919C911197A815B905B1F56C0142E018
:10153000C40ED11CCA14DB0478F14C018A189B0834
:10154000640142E0C40ED11C1296BC90129713960F
:10155000AC91B5E0CB16D10440F0B282A383918266
:101560008082D9016D937C9309C00E5F1F4F800F5D
:10157000911FF90191838083EB2DFA2FE114F1047F
:1015800031F0D7011396FC93EE93129741C0F0937C
:10159000E901E093E8013CC06816790608F43C01D3
:1015A0007D0112960D90BC91A02DB7CF8091E601E0
:1015B0009091E70188169906E1F466167706C8F45B
:1015C0008091000190910101009741F48DB79EB781
:1015D0004091040150910501841B950BE817F90710
:1015E000C8F4F093E701E093E601F90171836083A9
:1015F0000FC0CB010E9415097C01009759F0A8018A
:10160000BE010E94AF0CCE010E94AD09C70104C00B
:10161000CE0102C080E090E0DF91CF911F910F9149
:10162000FF90EF90DF90CF90BF90AF909F908F9002
:101630007F906F90089508955058BB27AA270E9465
:10164000340B0C9440020E94320238F00E9439029E
:1016500020F039F49F3F19F426F40C942F020EF475
:10166000E095E7FB0C942902E92F0E94510258F300
:10167000BA17620773078407950720F079F4A6F577
:101680000C9473020EF4E0950B2EBA2FA02D0B01D3
:10169000B90190010C01CA01A0011124FF27591BB7
:1016A00099F0593F50F4503E68F11A16F040A22FBD
:1016B000232F342F4427585FF3CF4695379527952E
:1016C000A795F0405395C9F77EF41F16BA0B620B2D
:1016D000730B840BBAF09150A1F0FF0FBB1F661F74
:1016E000771F881FC2F70EC0BA0F621F731F841FB7
:1016F00048F4879577956795B795F7959E3F08F0DD
:10170000B0CF9395880F08F09927EE0F979587959E
:1017100008950E94C40B08F481E008950E94950B7F
:101720006894B1110C94740208950E94590288F0D3
:101730009F5798F0B92F9927B751B0F0E1F0660F95
:10174000771F881F991F1AF0BA95C9F714C0B130D6
:1017500091F00E947302B1E008950C947302672F18
:10176000782F8827B85F39F0B93FCCF38695779505
:101770006795B395D9F73EF49095809570956195EE
:101780007F4F8F4F9F4F0895990F0008550FAA0B59
:10179000E0E8FEEF16161706E807F907C0F0121684
:1017A0001306E407F50798F0621B730B840B950B87
:1017B00039F40A2661F0232B242B252B21F40895DC
:1017C0000A2609F4A140A6958FEF811D811D089579
:1017D0000E94C40B08F48FEF08950E94000C0C9433
:1017E00040020E94320238F00E94390220F0952314
:1017F00011F00C9429020C942F0211240C94740201
:101800000E94510270F3959FC1F3950F50E0551F50
:10181000629FF001729FBB27F00DB11D639FAA2745
:10182000F00DB11DAA1F649F6627B00DA11D661F94
:10183000829F2227B00DA11D621F739FB00DA11DB5
:10184000621F839FA00D611D221F749F3327A00D6F
:10185000611D231F849F600D211D822F762F6A2F0B
:1018600011249F5750409AF0F1F088234AF0EE0F70
:10187000FF1FBB1F661F771F881F91505040A9F79D
:101880009E3F510580F00C9429020C9474025F3F36
:10189000E4F3983ED4F3869577956795B795F795D9
:1018A000E7959F5FC1F7FE2B880F911D9695879551
:1018B00097F908950E94C40B880B990B089597FB24
:1018C000072E16F4009407D077FD09D00E94950CDE
:1018D00007FC05D03EF4909581959F4F0895709533
:1018E00061957F4F0895A1E21A2EAA1BBB1BFD0133
:1018F0000DC0AA1FBB1FEE1FFF1FA217B307E407EF
:10190000F50720F0A21BB30BE40BF50B661F771F46
:10191000881F991F1A9469F7609570958095909526
:101920009B01AC01BD01CF010895AA1BBB1B51E176
:1019300007C0AA1FBB1FA617B70710F0A61BB70B3F
:10194000881F991F5A95A9F780959095BC01CD01E4
:101950000895EE0FFF1F0590F491E02D0994FB010F
:10196000DC0102C001900D9241505040D8F708951B
:10197000FB01DC0101900D920020E1F70895253272
:10198000310520F4223010F00C94CA0CFA011082B8
:10199000CA010895BB272A3051F4992342F4BDE2CD
:1019A00090958095709561957F4F8F4F9F4F0C94C8
:1019B000DA0CBB27FA01A62F621771058105910584
:1019C000330B30FB66F0AA27660F771F881F991F1D
:1019D000AA1FA21710F0A21B63953850A9F7A05DAB
:1019E000AA3308F0A95DA19336F7B111B193108223
:1019F000CA010C94FB0CDC01FC01672F7191772369
:101A0000E1F7329704C07C916D9370836291AE17B9
:0A1A1000BF07C8F30895F894FFCF54
:101A1A000000EA018000090054656D705B435D3D7A
:101A2A0000095072657373757265205B50615D3D84
:101A3A000000000000D90244047A029602880221BA
:101A4A00036E616E00696E66006F7666002E000096
:00000001FF
