S01100004E726632346C6F312B2E7372656350
S11300000C9411010C9439010C9439010C943901AC
S11300100C9439010C9439010C9439010C94390174
S11300200C9439010C9439010C9439010C94390164
S11300300C9439010C9439010C9439010C94390154
S11300400C945E0D0C9439010C94820A0C94B40A3D
S11300500C9439010C9439010C9439010C94390134
S11300600C9439010C9439017F074D074D074D0756
S11300705C075F07620765077F077F077F077F07C6
S11300807F077F077F075C075F07620765077907BC
S1130090790779077907790779077907790779075C
S11300A0790779076E077907790779077907790757
S11300B0790779077907790779077907790779073C
S11300C07907790772076E616E00696E66000040F9
S11300D07A10F35A00A0724E18090010A5D4E80053
S11300E000E87648170000E40B54020000CA9A3B6B
S11300F0000000E1F50500008096980000004042F1
S11301000F000000A086010000001027000000007E
S1130110E803000000006400000000000A00000082
S113012000000100000000002C76D888DC674F082E
S113013023DFC1DFAE59E1B1B796E5E3E453C63A34
S1130140E651997696E8E6C28426EB898C9B62EDAB
S1130150407C6FFCEFBC9C9F40F2BAA56FA5F49065
S1130160055A2AF75C936B6CF9676DC11BFCE0E4DC
S11301700D47FEF520E6B500D0ED902E0300943532
S113018077050080841E080000204E0A000000C885
S11301900C333333330F986E12831141EF8D2114D6
S11301A0893BE65516CFFEE6DB18D1844B381BF7A6
S11301B07C1D901DA4BBE424203284725E22810045
S11301C0C9F124ECA1E53D27000102030405000068
S11301D00007000201000003040600000000000004
S11301E000000102040810204080010204081020CD
S11301F00102040810200404040404040404020298
S113020002020202030303030303000000002500AB
S113021028002B0000000000240027002A00980773
S1130220E40A11241FBECFEFD8E0DEBFCDBF15E036
S1130230A0E0B1E0E2E3FBE202C005900D92A43D30
S1130240B107D9F728E0A4EDB5E001C01D92A337AA
S1130250B207E1F711E0C1E1D1E004C02197FE014A
S11302600E949C13CF30D107C9F70E94110B0C9444
S113027097150C9400008EBD0DB407FEFDCF8EB50E
S113028008951F93CF93DF93EC01162F81E00E9412
S1130290F00E80E00E94F90E84E00E94FE0E612FB1
S11302A08A810E94AB0E8F89988DDF91CF911F9127
S11302B00C94010EFC0120813181828193812817E5
S11302C0390719F0822F0C94AB0E089560E00C945A
S11302D0410161E00C9441011F93CF93DF93EC0142
S11302E0162F0E946601812F8F710E943B018FEFB0
S11302F00E943B01182FCE010E946901812FDF91DA
S1130300CF911F910895CF92DF92EF92FF920F93B6
S11303101F93CF93DF937C01162F6A01C22F0E9493
S11303206601812F8F7180620E943B01D82F860164
S1130330CC2339F0F80181918F010E943B01C15017
S1130340F7CFC7010E9469018D2FDF91CF911F91D3
S11303500F91FF90EF90DF90CF9008950F931F932C
S1130360CF93DF938C01C62FD42F0E9466018C2F6C
S11303708F7180620E943B01C82F8D2F0E943B0128
S1130380C8010E9469018C2FDF91CF911F910F91B9
S11303900895BF92CF92DF92EF92FF920F931F9333
S11303A0CF93DF938C01B62EC72EF22EFC01C085AD
S11303B0DC2F4C1708F4D42FF8018185811102C079
S11303C0CD1B01C0C0E0C8010E9466018F2D0E94B0
S11303D03B01D82EEB2CFC2CDD2339F0F701819165
S11303E07F010E943B01D150F7CFCC2329F080E05C
S11303F00E943B01C150F9CFC8010E9469018D2DB3
S1130400DF91CF911F910F91FF90EF90DF90CF90EC
S1130410BF900895BF92CF92DF92EF92FF920F9315
S11304201F93CF93DF938C01B62EC72EFC01C0859A
S1130430DC2F4C1708F4D42FF8018185811102C0F8
S1130440CD1B01C0C0E0C8010E94660181E60E9484
S11304503B01D82EEB2CFC2CDD2341F08FEF0E94C6
S11304603B01F70181937F01D150F6CFCC2329F0D2
S11304708FEF0E943B01C150F9CFC8010E9469016E
S11304808D2DDF91CF911F910F91FF90EF90DF9011
S1130490CF90BF9008951F93CF93DF93EC01162F55
S11304A00E946601812F0E943B01182FCE010E94F9
S11304B06901812FDF91CF911F91089562EE0C9411
S11304C04B0261EE0C944B026FEF0C944B020F93B2
S11304D01F93FC01718360835383428304831583D8
S11304E02683378380E28087118685E0808B85E0D0
S11304F090E0A0E0B0E0878B908FA18FB28F13863D
S1130500093B18482105310540F480E896E9A8E93B
S1130510B0E084839583A683B7831F910F910895D8
S11305206D3710F4462F01C04DE765E00C94AE0121
S1130530CF93DF93EC0160E00E945A018B899C8980
S11305400E94010E6DE1CE010E946C0181FF07C083
S11305508B899C890E94010ECE010E946102498907
S11305604E7F498B60E0CE010E94AE0162E0CE0175
S11305700E946C01E8ECF1E0E49141E050E001C03C
S1130580440FEA95EAF7482B62E0CE01DF91CF9160
S11305900C94AE01FC01418941FD0BC04260418BCA
S11305A060E00E94AE0165E070E080E090E00C94B1
S11305B0D90D08950F93CF93DF93EC01211102C05D
S11305C020EA01C020EBCE010E94C901002339F0CA
S11305D061E0CE01DF91CF910F910C945A01DF912C
S11305E0CF910F910895CF92DF92EF92FF920F93E4
S11305F0CF93DF93EC0101E020E00E94DA0264E68D
S113060070E080E090E00E94D90D0E94A80D6B017B
S11306107C01CE010E946402807381F40E94A80DC3
S1130620DC01CB018C199D09AE09BF098036910507
S1130630A105B10570F381E08A8B0EC060E0CE01A4
S11306400E945A0140E767E0CE010E94AE0184FF98
S113065005C0CE010E94610280E001C081E0DF910B
S1130660CF910F91FF90EF90DF90CF90089520E00D
S11306700C94F3020F931F93CF938C010E94660195
S113068080E60E943B018FEF0E943B01C82FC80106
S11306900E946901C13258F0C8010E945E0262E002
S11306A070E080E090E00E94D90D80E001C08C2FC2
S11306B0CF911F910F910895CF93DF93EB010E9487
S11306C0640290E0959587958770863020F4209792
S11306D021F0888302C080E001C081E0DF91CF91E6
S11306E00895CF93DF93EC010E940A0240E767E08C
S11306F0CE01DF91CF910C94AE010F931F93CF9352
S1130700DF93EC018B012889AB016AE00E9483012D
S11307102889A80160E1CE010E948301488561E136
S1130720CE01DF91CF911F910F910C94AE01CF9325
S1130730DF93EC010E94660180E50E943B0183E7A0
S11307400E943B01CE01DF91CF910C946901CF93BC
S1130750DF93EC01888199812A813B818217930779
S113076039F061E00E946F0E61E08A810E946F0E91
S11307700E94DA0E60E0CE010E945A0161E0CE01CF
S11307800E94410165E070E080E090E00E94D90D94
S113079040E064E0CE010E94AE01CE010E949703C6
S11307A040E06DE1CE010E94AE0140E06CE1CE017B
S11307B00E94AE0119861A8640E767E0CE010E94C6
S11307C0AE0162E0CE010E949002CE010E945E0260
S11307D0CE010E94610248E060E0CE010E94AE01B9
S11307E060E0CE010E946C01898BCE010E94CA0296
S11307F081E099899A3009F080E0DF91CF910895E2
S1130800CF93DF93EC016DE10E946C01482F4460AB
S11308106DE1CE010E94AE016CE1CE010E946C013B
S1130820482F4F636CE1CE010E94AE0181E08987BD
S1130830DF91CF910895CF93DF93EC016DE10E9496
S11308406C01482F46606DE1CE010E94AE016CE15F
S1130850CE010E946C01482F43606CE1CE010E94DE
S1130860AE0181E089878A87DF91CF91089560E0A6
S113087070E00C945C0320E1629FB00111244F707E
S1130880462B64E00C94AE012F923F924F925F92FC
S11308906F927F928F929F92AF92BF92CF92DF928C
S11308A0EF92FF920F931F93CF93DF9300D000D06A
S11308B000D0CDB7DEB782EB97E00E9437048823DF
S11308C009F433C282EB97E00E943A038093B107A4
S11308D0482F61E977E082EB97E00E9471038091F1
S11308E0B1078630E8F18091D6058430C9F580914E
S11308F091079091920780938A0790938B07209198
S113090093073091940720938C0730938D0740917F
S113091095075091960740938E0750938F075F93E6
S11309204F935F934F933F932F933F932F939F93B3
S11309308F939F938F9380E091E09F938F938EE9A1
S113094096E09F938F930E9417156EE976E08DECE5
S113095097E00E94780B0FB6F894DEBF0FBECDBFB0
S11309608091B1078B3008F473C08091D605833031
S113097009F06EC06091910770919207072E000CE8
S1130980880B990B0E945B086B017C0160937207D2
S1130990709373078093740790937507609195071C
S11309A070919607072E000C880B990B0E945B0828
S11309B0609376077093770780937807909379070D
S11309C06091990770919A07072E000C880B990B78
S11309D00E945B0860937A0770937B0780937C077F
S11309E090937D0720E130E0B701A6018DEC97E0FC
S11309F00E945C0D60EF71E08DEC97E00E945B0B50
S1130A004091760750917707609178077091790744
S1130A1020E130E08DEC97E00E945C0D60EF71E026
S1130A208DEC97E00E945B0B40917A0750917B0715
S1130A3060917C0770917D0720E130E08DEC97E0B8
S1130A400E945C0D60EF71E08DEC97E00E94780BE2
S1130A508091B1078B3008F450C18091D605823063
S1130A6009F04BC1E0909107F0909207F09285074E
S1130A70E0928407009193071091940710938707DD
S1130A800093860780919507909196079E838D83A6
S1130A9090938907809388076091970770919807CE
S1130AA070938B0760938A07A0909907B0909A0778
S1130AB0B0928D07A0928C07C0909B07D0909C07A2
S1130AC0D0928F07C0928E0780919D0790919E07C8
S1130AD090937F0780937E0780919F079091A00752
S1130AE090938107809380078091A1079091A2073A
S1130AF09093830780938207072E000C880B990B31
S1130B000E945B0820E030E040E058E30E94E708E0
S1130B109B01AC010E94ED0769837A838B839C83DC
S1130B20472F382F292F862F942FA32FB22F80934E
S1130B30660790936707A0936807B0936907B501A8
S1130B40BB0C880B990B0E945B0820E030E040E06E
S1130B5058E30E94E7089B01AC010E94ED07B62E02
S1130B60A72E982E892EA5019401852F942FA32FAB
S1130B70B22F80936A0790936B07A0936C07B0938E
S1130B806D07B601DD0C880B990B0E945B0820E011
S1130B9030E040E058E30E94E7089B01AC010E946A
S1130BA0ED07D62EC72E782E692EA6019301852F28
S1130BB0942FA32FB22F80936E0790936F07A09367
S1130BC07007B0937107B701FF0C880B990B0E9453
S1130BD05B0820E030E040E058E30E94E70820E0B2
S1130BE030E04AEF54E40E94E708F62EE72E582E30
S1130BF0492EA7019201852F942FA32FB22F809302
S1130C00720790937307A0937407B0937507B801A4
S1130C10110F880B990B0E945B0820E030E040E044
S1130C2058E30E94E70820E030E04AEF54E40E94D1
S1130C30E708162F072F382E292EA8019101852F9A
S1130C40942FA32FB22F8093760790937707A093C6
S1130C507807B09379072D813E81B901330F880B52
S1130C60990B0E945B0820E030E040E058E30E94CA
S1130C70E70820E030E04AEF54E40E94E7089B01D3
S1130C80462F532FBC0140937A0750937B07609300
S1130C907C0770937D079F938F933F932F932F929D
S1130CA03F920F931F934F925F92EF92FF926F9236
S1130CB07F92CF92DF928F929F92AF92BF923C81AC
S1130CC03F938B818F939A819F9329812F9384E102
S1130CD091E09F938F938EE996E09F938F930E9468
S1130CE017156EE976E08DEC97E00E94780B0FB64D
S1130CF0F894DEBF0FBECDBF1BC010929007E091E9
S1130D0090078091B107E81798F4F0E0EF56F84F98
S1130D1040E150E060818DEC97E00E94F40B8091FB
S1130D2090078F5F80939007EACF80E090E002C045
S1130D3081E090E026960FB6F894DEBF0FBECDBFDB
S1130D40DF91CF911F910F91FF90EF90DF90CF90A3
S1130D50BF90AF909F908F907F906F905F904F90D7
S1130D603F902F90089582EB97E00E94A70361EBD8
S1130D7075E082EB97E00E947D0382EB97E00E948E
S1130D801B0482EB97E00E94000445E065E082EBDF
S1130D9097E00E943B0426E040E051EE60E070E002
S1130DA08DEC97E00E941D0A62EF71E08DEC97E0F4
S1130DB00E94780B82EB97E00C9498022091D40562
S1130DC03091D5050197A9014F5F5F4F2817390767
S1130DD02CF45093D5054093D405089566ED75E041
S1130DE082EB97E00E9437036091D4057091D5059A
S1130DF06F5F7F4F4AE050E08DEC97E00E940C0C4F
S1130E001092D5051092D40508950F931F93CF9394
S1130E10DF938091D4059091D505181619061CF41A
S1130E20C0E0D0E014C001969093D5058093D4051A
S1130E3022C061E070E080E090E00E94D90D015092
S1130E40110921F00E944404892B99F32196809181
S1130E50D70590E08C179D0754F041E066ED75E0EE
S1130E6082EB97E00E94370306E010E0EBCF10928C
S1130E70D5051092D405DF91CF911F910F9108955C
S1130E80E091D6058E2F90E0FC013197EF32F10509
S1130E9080F5EC5CFF4F0C949C13E091D405F09129
S1130EA0D505EA52FA4F40E150E060818DEC97E0BD
S1130EB00E94F40B0C9405076BE271E008C065E432
S1130EC071E005C06FE571E002C069E771E08DEC87
S1130ED097E00E94780B82E090E002C083E090E00B
S1130EE00C94DE0663E971E08DEC97E00E94780BC8
S1130EF013C06EEA71E08DEC97E00E945B0BE09109
S1130F00D405F091D505EA52FA4F40E150E06081F2
S1130F108DEC97E00E94F40B4091D4055091D505D7
S1130F204F5F5F4F66ED75E082EB97E00C943703FB
S1130F300F931F9300E816E928E930E04AE050E0F7
S1130F4069E070E082EB97E00E9467021F910F91C5
S1130F500895CF93DF938DEC97E00E945409892B79
S1130F60D1F38DEC97E00E9454091816190684F504
S1130F70C091D405D091D5058DEC97E00E947009FD
S1130F80CA52DA4F88836EEC71E08DEC97E00E94D0
S1130F905B0BE091D405F091D505EA52FA4F40E19C
S1130FA050E060818DEC97E00E94F40B6FED71E0EE
S1130FB08DEC97E00E945B0B6091D4057091D50590
S1130FC040E150E08DEC97E00E946D0C0E944007D8
S1130FD0DF91CF910C9444045058BB27AA270E9458
S1130FE004080C94AD080E949F0838F00E94A608DB
S1130FF020F039F49F3F19F426F40C949C080EF465
S1131000E095E7FB0C949608E92F0E94BE0858F37C
S1131010BA17620773078407950720F079F4A6F5D9
S11310200C94E0080EF4E0950B2EBA2FA02D0B01C2
S1131030B90190010C01CA01A0011124FF27591B19
S113104099F0593F50F4503E68F11A16F040A22F1F
S1131050232F342F4427585FF3CF46953795279590
S1131060A795F0405395C9F77EF41F16BA0B620B8F
S1131070730B840BBAF09150A1F0FF0FBB1F661FD6
S1131080771F881FC2F70EC0BA0F621F731F841F19
S113109048F4879577956795B795F7959E3F08F03F
S11310A0B0CF9395880F08F09927EE0F9795879501
S11310B00895E89409C097FB3EF490958095709547
S11310C061957F4F8F4F9F4F9923A9F0F92F96E990
S11310D0BB279395F695879577956795B795F11105
S11310E0F8CFFAF4BB0F11F460FF1BC06F5F7F4FA2
S11310F08F4F9F4F16C0882311F096E911C07723B4
S113110021F09EE8872F762F05C0662371F096E8BC
S1131110862F70E060E02AF09A95660F771F881F8B
S1131120DAF7880F9695879597F9089597F99F6749
S113113080E870E060E008959FEF80EC089500245B
S11311400A941616170618060906089500240A9428
S113115012161306140605060895092E0394000CAE
S113116011F4882352F0BB0F40F4BF2B11F460FF3D
S113117004C06F5F7F4F8F4F9F4F089557FD905866
S1131180440F551F59F05F3F71F04795880F97FB47
S1131190991F61F09F3F79F0879508951216130601
S11311A01406551FF2CF4695F1DF08C01616170630
S11311B01806991FF1CF8695710561050894089565
S11311C0E894BB2766277727CB0197F908950E94F7
S11311D0FA080C94AD080E949F0838F00E94A608F3
S11311E020F0952311F00C9496080C949C0811247B
S11311F00C94E1080E94BE0870F3959FC1F3950F0B
S113120050E0551F629FF001729FBB27F00DB11D86
S1131210639FAA27F00DB11DAA1F649F6627B00D16
S1131220A11D661F829F2227B00DA11D621F739FFF
S1131230B00DA11D621F839FA00D611D221F749F0D
S11312403327A00D611D231F849F600D211D822F54
S1131250762F6A2F11249F5750409AF0F1F088237B
S11312604AF0EE0FFF1FBB1F661F771F881F9150A8
S11312705040A9F79E3F510580F00C9496080C94B9
S1131280E1085F3FE4F3983ED4F38695779567953C
S1131290B795F795E7959F5FC1F7FE2B880F911DD2
S11312A09695879597F90895FC01918D228D892F44
S11312B090E0805C9F4F821B910960E470E00E9483
S11312C066130895FC01918D828D981731F0828DFB
S11312D0E80FF11D858D90E008958FEF9FEF08953D
S11312E0FC01918D828D981761F0828DDF01A80F2A
S11312F0B11D5D968C91928D9F5F9F73928F90E04C
S113130008958FEF9FEF08958AED9AE0892B49F0B5
S113131080E090E0892B29F00E94DA0A81110C9474
S113132000000895FC01848DDF01A80FB11DA35AAC
S1131330BF4F2C91848D90E001968F739927848FF1
S1131340A689B7892C93A089B1898C9180648C93E8
S1131350938D848D981306C00288F389E02D8081D3
S11313608F7D80830895EF92FF920F931F93CF9305
S1131370DF93EC019B8D8C8D981305C0E889F98966
S1131380808185FD27C0F62E0B8D10E00F5F1F4F67
S11313900F731127E02E8C8DE8120CC00FB607FCDA
S11313A0FACFE889F989808185FFF5CFCE010E94C3
S11313B09209F1CF8B8DFE01E80FF11DE35AFF4F27
S11313C0F0820B8FEA89FB8980818062808381E0CF
S11313D0888F08C0EE89FF896083E889F989808154
S11313E08064808381E090E0DF91CF911F910F9121
S11313F0FF90EF900895CF93DF93EC01888D8823BD
S1131400C9F0EA89FB89808185FD05C0A889B9896D
S11314108C9186FD0FC00FB607FCF5CF808185FF48
S1131420F2CFA889B9898C9185FFEDCFCE010E94B6
S11314309209E7CFDF91CF910895CF92DF92EF9297
S1131440FF921F93CF93DF93EC016A017B01122F6C
S1131450E889F98982E080834115514E610571055F
S1131460B1F060E079E08DE390E0A70196010E947D
S11314707A13DA01C9010197A109B109B695A795B3
S1131480979587959C01211580E13807A8F0E88994
S1131490F989108260E874E88EE190E0A701960172
S11314A00E947A13DA01C9010197A109B109B6951D
S11314B0A795979587959C01EC85FD853083EE85EE
S11314C0FF852083188EEC89FD891083EA89FB89C6
S11314D0808180618083EA89FB8980818860808340
S11314E0EA89FB89808180688083EA89FB8980811D
S11314F08F7D8083DF91CF911F91FF90EF90DF90DC
S1131500CF9008951F920F920FB60F9211242F932C
S11315108F939F93EF93FF93E091DD07F091DE07A4
S11315208081E091E307F091E40782FD12C090818D
S11315308091E6078F5F8F732091E707821751F040
S1131540E091E607F0E0E353F84F958F8093E607C8
S113155001C08081FF91EF919F918F912F910F9006
S11315600FBE0F901F9018951F920F920FB60F92F7
S113157011242F933F934F935F936F937F938F9394
S11315809F93AF93BF93EF93FF938DEC97E00E94EB
S11315909209FF91EF91BF91AF919F918F917F91AC
S11315A06F915F914F913F912F910F900FBE0F90CC
S11315B01F9018958DEC97E00E94540921E0892B27
S11315C009F420E0822F0895EDECF7E013821282F3
S11315D088EE93E0A0E0B0E084839583A683B7838C
S11315E08AEB95E09183808385EC90E095878487EE
S11315F084EC90E09787868780EC90E0918B808BD9
S113160081EC90E0938B828B82EC90E0958B848BC1
S113161086EC90E0978B868B118E128E138E148E2F
S113162008950E940B0E0E94B306C4E8D9E00E94FC
S1131630A9072097E1F30E948409F9CFCF92DF92A2
S1131640EF92FF920F931F93CF93DF936C01EB0103
S11316507B01E40EF51E00E010E0CE15DF0561F01D
S11316606991D601ED91FC910190F081E02DC601C4
S11316700995080F191FF1CFC801DF91CF911F9170
S11316800F91FF90EF90DF90CF9008956115710551
S113169079F0FB0101900020E9F73197AF01461B77
S11316A0570BDC01ED91FC910280F381E02D09944C
S11316B080E090E008950C94460BDC01ED91FC91E0
S11316C00190F081E02D09940F931F93CF93DF9342
S11316D0EC016DE00E945D0B8C016AE0CE010E947A
S11316E05D0B800F911FDF91CF911F910F91089592
S11316F00F931F93CF93DF93EC010E94460B8C0151
S1131700CE010E94640B800F911FDF91CF911F9136
S11317100F9108958F929F92AF92BF92CF92DF92D2
S1131720EF92FF920F931F93CF93DF93CDB7DEB762
S1131730A1970FB6F894DEBF0FBECDBF6C01142F76
S1131740E52FCB01022F19A2223008F40AE07E0112
S113175021E2E20EF11C802E912CA12CB12C612FE0
S11317607E2FA50194010E947A13029F101911245F
S113177081E0E81AF1081A3010F4105D01C0195C18
S1131780F7011083122FE32FCA01232B242B252BBF
S113179031F7B701C6010E94460BA1960FB6F89423
S11317A0DEBF0FBECDBFDF91CF911F910F91FF9090
S11317B0EF90DF90CF90BF90AF909F908F9008955F
S11317C02115310541F4DC01ED91FC910190F0818A
S11317D0E02D642F09940C948A0B9A01462F50E053
S11317E060E070E00C94E00B0F931F93CF93DF93B2
S11317F0EC010E94ED0B8C01CE010E94640B800F62
S1131800911FDF91CF911F910F9108959A01AB0120
S113181060E070E00C94E00B0F931F93CF93DF9381
S1131820EC010E94060C8C01CE010E94640B800F17
S1131830911FDF91CF911F910F910895CF92DF9265
S1131840EF92FF920F931F93CF93DF9321153105EE
S113185081F4DC01ED91FC910190F081E02D642F85
S1131860DF91CF911F910F91FF90EF90DF90CF9078
S113187009942A30310501F577FF1DC06A017B0107
S1131880EC016DE20E945D0B8C0144275527BA01DF
S11318904C195D096E097F092AE0CE010E948A0B6A
S11318A0800F911FDF91CF911F910F91FF90EF90C7
S11318B0DF90CF9008952AE0DF91CF911F910F918F
S11318C0FF90EF90DF90CF900C948A0B9A01AB01BC
S11318D0770F660B770B0C941E0C0F931F93CF930B
S11318E0DF93EC010E94660C8C01CE010E94640B14
S11318F0800F911FDF91CF911F910F9108957F92D7
S11319008F929F92AF92BF92CF92DF92EF92FF920B
S11319100F931F93CF93DF938C016A017B01722E87
S11319209A01AB01C701B6010E94E40F882319F0A4
S113193066EC75E027C046015701E894B7F82FEF2D
S11319403FEF4FE75FE7C501B4010E94E40F811147
S11319500DC02FEF3FEF4FE75FE7C501B4010E94D1
S11319600E0F18161CF46AEC75E00CC02FEF3FEF55
S11319704FE75FE4C701B6010E94DF0F181694F425
S11319806EEC75E0C801DF91CF911F910F91FF902C
S1131990EF90DF90CF90BF90AF909F908F907F900B
S11319A00C94460B2FEF3FEF4FE75FECC701B601F6
S11319B00E940E0F87FDE4CF20E030E0A901C701AB
S11319C0B6010E940E0F87FF0AC06DE2C8010E9493
S11319D05D0BEC01F7FAF094F7F8F09402C0C0E064
S11319E0D0E0B12C60E070E080E09FE37B1441F034
S11319F020E030E040E251E40E94130FB394F6CFAC
S1131A00A70196010E94ED076B017C010E948C0FD7
S1131A104B015C012AE0AB01BC01C8010E948A0BA6
S1131A20C80FD91F7720C9F1C501B4010E94590814
S1131A309B01AC01C701B6010E94EC076B017C015C
S1131A4062ED75E0C8010E94460BC80FD91F20E063
S1131A5030E040E251E4C701B6010E94E7084B01BF
S1131A605C010E94850F6B017C014AE050E0C801D3
S1131A700E94660CC80FD91FB601DD0C880B990BA8
S1131A800E945B089B01AC01C501B4010E94EC07F4
S1131A906B017C017A947110DACFCE01DF91CF9182
S1131AA01F910F91FF90EF90DF90CF90BF90AF9078
S1131AB09F908F907F9008950C947F0C1F920F92AB
S1131AC00FB60F9211242F933F938F939F93AF934D
S1131AD0BF9380916B0890916C08A0916D08B091B0
S1131AE06E0830916A0823E0230F2D3720F4019605
S1131AF0A11DB11D05C026E8230F0296A11DB11D2D
S1131B0020936A0880936B0890936C08A0936D08E7
S1131B10B0936E0880916F0890917008A09171083D
S1131B20B09172080196A11DB11D80936F08909326
S1131B307008A0937108B0937208BF91AF919F9100
S1131B408F913F912F910F900FBE0F901F9018957A
S1131B502FB7F89460916B0870916C0880916D08B0
S1131B6090916E082FBF08953FB7F89480916F0845
S1131B7090917008A0917108B091720826B5A89B45
S1131B8005C02F3F19F00196A11DB11D3FBFBA2F0B
S1131B90A92F982F8827820F911DA11DB11DBC016B
S1131BA0CD0142E0660F771F881F991F4A95D1F730
S1131BB00895CF92DF92EF92FF92CF93DF936B0160
S1131BC07C010E94B40DEB01C114D104E104F104C1
S1131BD089F00E940D0F0E94B40D6C1B7D0B683EB2
S1131BE0734090F381E0C81AD108E108F108C851A4
S1131BF0DC4FEACFDF91CF91FF90EF90DF90CF9051
S1131C000895019739F0880F991F880F991F02973B
S1131C100197F1F70895789484B5826084BD84B502
S1131C20816084BD85B5826085BD85B5816085BDD3
S1131C30EEE6F0E0808181608083E1E8F0E01082EC
S1131C40808182608083808181608083E0E8F0E02D
S1131C50808181608083E1EBF0E080818460808317
S1131C60E0EBF0E0808181608083EAE7F0E080814E
S1131C7084608083808182608083808181608083AE
S1131C808081806880831092C1000895833081F040
S1131C9028F4813099F08230A1F008958630A9F0BB
S1131CA08730B9F08430D1F4809180008F7D03C0F7
S1131CB0809180008F7780938000089584B58F771A
S1131CC002C084B58F7D84BD08958091B0008F7764
S1131CD003C08091B0008F7D8093B0000895CF93AE
S1131CE0DF9390E0FC01EE51FE4F2491FC01EA5099
S1131CF0FE4F8491882361F190E0880F991FFC01C5
S1131D00EC5EFD4FC591D491FC01E65FFD4FA591BA
S1131D10B491611109C09FB7F894888120958223FA
S1131D208883EC912E230BC0623061F49FB7F89442
S1131D308881322F309583238883EC912E2B2C932A
S1131D409FBF06C08FB7F894E8812E2B28838FBFDE
S1131D50DF91CF9108951F93CF93DF93282F30E025
S1131D60F901E253FE4F8491F901EE51FE4FD491F3
S1131D70F901EA50FE4FC491CC23C1F0162F811112
S1131D800E94460EEC2FF0E0EE0FFF1FE65FFD4FC2
S1131D90A591B4919FB7F894111104C08C91D0957A
S1131DA0D82302C0EC91DE2BDC939FBFDF91CF914F
S1131DB01F91089561E08AE00E94AB0E61E08AE021
S1131DC00E946F0E8CB580618CBD8CB580648CBD17
S1131DD061E08DE00E946F0E61E08BE00C946F0E69
S1131DE0811103C08CB5806202C08CB58F7D8CBD1F
S1131DF008959CB5937F892B8CBD08959CB59C7FD9
S1131E00282F2370922B9CBD2DB582FB992790F926
S1131E10822F8E7F892B8DBD089508950E94BB0F5C
S1131E2008F481E008950E94270F0C94AD080E94E5
S1131E30A60858F00E949F0840F029F45F3F29F05B
S1131E400C94960851110C94E1080C949C080E947F
S1131E50BE0868F39923B1F3552391F3951B550BF1
S1131E60BB27AA2762177307840738F09F5F5F4F69
S1131E70220F331F441FAA1FA9F335D00E2E3AF0A8
S1131E80E0E832D091505040E695001CCAF72BD0C0
S1131E90FE2F29D0660F771F881FBB1F2617370711
S1131EA04807AB07B0E809F0BB0B802DBF01FF2743
S1131EB093585F4F3AF09E3F510578F00C94960882
S1131EC00C94E1085F3FE4F3983ED4F3869577954C
S1131ED06795B795F7959F5FC9F7880F911D9695FC
S1131EE0879597F90895E1E0660F771F881FBB1F58
S1131EF0621773078407BA0720F0621B730B840B05
S1131F00BA0BEE1F88F7E09508950E948C0F689431
S1131F10B1110C94E10808950E94C60888F09F57F7
S1131F2098F0B92F9927B751B0F0E1F0660F771FF9
S1131F30881F991F1AF0BA95C9F714C0B13091F0EF
S1131F400E94E008B1E008950C94E008672F782F10
S1131F508827B85F39F0B93FCCF3869577956795B4
S1131F60B395D9F73EF490958095709561957F4F20
S1131F708F4F9F4F0895990F0008550FAA0BE0E863
S1131F80FEEF16161706E807F907C0F01216130637
S1131F90E407F50798F0621B730B840B950B39F477
S1131FA00A2661F0232B242B252B21F408950A26DD
S1131FB009F4A140A6958FEF811D811D08950E940B
S1131FC0BB0F08F48FEF08950E94BB0F880B990B89
S1131FD00895A0E1B0E0EFEEFFE00C94A2137C01C1
S1131FE01B016A01FC0117821682838181FF44C3AD
S1131FF09E012F5F3F4F3901F7019381F10193FD5A
S1132000859193FF81911F01882309F431C385329F
S113201039F493FD859193FF81911F01853239F441
S1132020B70190E00E94DB1456016501E5CF10E092
S1132030512C912CFFE1F915D8F08B3279F038F45A
S1132040803279F08332A1F4F92DF0612EC08D3203
S113205061F0803369F4292D21602DC0392D32605F
S1132060932E892D8460982E2AC0E92DE86015C02E
S113207097FC2DC020ED280F2A3088F496FE06C068
S11320803AE0139F200D1124122F19C08AE0589EA4
S1132090200D1124522EE92DE0629E2E10C08E32A6
S11320A031F496FCE5C2F92DF0649F2E08C08C36FD
S11320B021F4292D2068922E02C0883641F4F101C2
S11320C093FD859193FF81911F018111B3CF9BEB08
S11320D0980F933020F4992D9061805E07C09BE99E
S11320E0980F933008F066C1992D9F7E96FF16E0F5
S11320F09F73992E853619F49064992E08C08636FC
S113210021F4392F3068932E02C01111115097FE1B
S113211007C01C3350F444244394410E27E00BC001
S1132120183038F027E017E005C027E09CE3492E7B
S113213002C0212F412C560184E0A80EB11CF601E7
S11321406081718182819381042DA3010E94ED132A
S11321506C01F981FC87F0FF02C0F3FF06C091FC1B
S113216006C092FE06C000E205C00DE203C00BE209
S113217001C000E08C858C7019F001115AC29BC219
S113218097FE10C04C0CFC85F4FF04C08A81813397
S113219009F44A94141474F528E0241578F588E0B9
S11321A0482E2CC096FC2AC0812F90E08C159D05EA
S11321B09CF03CEFC3163FEFD30674F0892D806882
S11321C0982E0AC0E2E0F0E0EC0FFD1FE10FF11DD4
S11321D08081803319F411501111F4CF97FE0EC091
S11321E044244394410E812F90E0C816D9062CF460
S11321F01C1904C04424439401C010E097FE06C097
S11322001C141D0434F4C601019605C085E090E059
S113221002C081E090E001110196112331F0212FD9
S113222030E02F5F3F4F820F931F252D30E0821740
S1132230930714F4581A01C0512C892D897049F45C
S1132240552039F0B70180E290E00E94DB145A94E3
S1132250F7CF002329F0B701802F90E00E94DB1410
S113226093FC09C0552039F0B70180E390E00E9447
S1132270DB145A94F7CF97FE4CC04601D7FE02C038
S1132280812C912CC60188199909F301E80FF91FD3
S1132290FE87ED87960124193109388B2F87012F8A
S11322A010E01195019511093FEF8316930629F467
S11322B0B7018EE290E00E94DB14C814D9044CF0FC
S11322C08F8598898815990524F4ED85FE8581818B
S11322D001C080E3F1E08F1A91082D853E852F5FC0
S11322E03F4F3E872D87801691062CF0B70190E072
S11322F00E94DB14D9CFC814D90441F49A819633CF
S113230020F4953319F43C8534FF81E3B70190E060
S11323104EC08A81813319F09C859F7E9C87B701CA
S113232090E00E94DB14111105C094FC18C085E6EE
S113233090E017C0B7018EE290E00E94DB141E5FAC
S113234082E001E0080FF301E80FF11D8081B7017D
S113235090E00E94DB14802F0113F3CFE6CF85E4D5
S113236090E0B7010E94DB14D7FC06C0C114D1046D
S113237041F4EC85E4FF05C0D194C194D1088DE209
S113238001C08BE2B70190E00E94DB1480E32AE0F5
S1132390C216D1042CF08F5FFAE0CF1AD108F7CF20
S11323A0B70190E00E94DB14B701C601C0960E94F9
S11323B0DB1454C1833631F0833779F0833509F067
S11323C056C020C0560132E0A30EB11CF601808134
S11323D0898301E010E0630112C05601F2E0AF0E00
S11323E0B11CF601C080D18096FE03C0612F70E05D
S11323F002C06FEF7FEFC6010E94D0148C01F92D4B
S1132400FF7714C0560122E0A20EB11CF601C08071
S1132410D18096FE03C0612F70E002C06FEF7FEFA2
S1132420C6010E94C5148C01F92DF0689F2EF3FD9E
S11324301AC0852D90E008171907A8F4B70180E2A7
S113244090E00E94DB145A94F4CFF60197FC859136
S113245097FE81916F01B70190E00E94DB14511047
S11324605A94015011090115110579F7F7C0843602
S113247011F0893661F5560197FE09C024E0A20ED9
S1132480B11CF60160817181828193810AC0F2E0FE
S1132490AF0EB11CF60160817181072E000C880B10
S11324A0990BF92DFF769F2E97FF09C09095809583
S11324B0709561957F4F8F4F9F4FF0689F2E2AE054
S11324C030E0A3010E943915C82EC6183FC0092D5B
S11324D0853721F40F7E2AE030E01DC0097F8F3656
S11324E091F018F4883559F0C3C0803719F0883753
S11324F011F0BEC0006104FF09C0046007C094FE6F
S113250008C0066006C028E030E005C020E130E0E5
S113251002C020E132E0560107FF09C084E0A80EA2
S1132520B11CF601608171818281938108C0F2E05F
S1132530AF0EB11CF6016081718180E090E0A301CF
S11325400E943915C82EC6180F77902E96FE0BC020
S1132550092D0E7FC11650F494FE0AC092FC08C0E7
S1132560092D0E7E05C0DC2C092D03C0DC2C01C016
S1132570D12E04FF0DC0FE01EC0DF11D80818033CE
S113258011F4097E09C002FF06C0D394D39404C099
S1132590802F867809F0D39403FD11C000FF06C094
S11325A01C2DD51480F4150D1D190DC0D51458F427
S11325B0B70180E290E00E94DB14D394F7CFD514E6
S11325C010F45D1801C0512C04FF10C0B70180E362
S11325D090E00E94DB1402FF17C001FD03C088E7EE
S11325E090E002C088E590E0B7010CC0802F8678A7
S11325F059F001FF02C08BE201C080E207FD8DE2C9
S1132600B70190E00E94DB14C11638F4B70180E3EF
S113261090E00E94DB141150F7CFCA94F301EC0D43
S1132620F11D8081B70190E00E94DB14C110F5CF49
S113263015C0F4E0F51560F584E0581A93FE1FC048
S1132640011127C02C8523FF2AC006EC10E0392D88
S11326503071932EF8018491811124C0552009F41E
S1132660E4CCB70180E290E00E94DB145A94F6CFE8
S1132670F7018681978126C08FEF9FEF23C0B701B2
S113268080E290E00E94DB145A945110F8CFD8CF26
S1132690512CB701802F90E00E94DB14D3CF0AECB9
S11326A010E0D5CF91108052B70190E00E94DB1466
S11326B00F5F1F4FCFCF23E0251510F483E0BDCF6C
S11326C0512CC0CF6096E2E10C94BE1397FB072E09
S11326D016F4009407D077FD09D00E94D91307FCA3
S11326E005D03EF4909581959F4F0895709561951E
S11326F07F4F0895A1E21A2EAA1BBB1BFD010DC03A
S1132700AA1FBB1FEE1FFF1FA217B307E407F5079D
S113271020F0A21BB30BE40BF50B661F771F881F79
S1132720991F1A9469F760957095809590959B010F
S1132730AC01BD01CF010895EE0FFF1F0590F49188
S1132740E02D09942F923F924F925F926F927F9265
S11327508F929F92AF92BF92CF92DF92EF92FF92AD
S11327600F931F93CF93DF93CDB7DEB7CA1BDB0B59
S11327700FB6F894DEBF0FBECDBF09942A883988FE
S113278048885F846E847D848C849B84AA84B98405
S1132790C884DF80EE80FD800C811B81AA81B98111
S11327A0CE0FD11D0FB6F894DEBF0FBECDBFED0125
S11327B00895AA1BBB1B51E107C0AA1FBB1FA61784
S11327C0B70710F0A61BB70B881F991F5A95A9F7D6
S11327D080959095BC01CD010895283008F027E03C
S11327E03327DA01990F311D87FD91600096610549
S11327F0710539F432602E5F3D9330E32A95E1F799
S113280008959F3F30F080387105610509F03C5F01
S11328103C5F3D93913008F08068911DDF93CF9326
S11328201F930F93FF92EF92192F987F9695E92F9C
S113283096959695E90FFF27E85DFE4F9927332774
S1132840EE24FF24A701E70105900894079428F4D7
S1132850360FE71EF81E491F511D660F771F881F8C
S1132860991F0694A1F70590079428F4E70EF81E23
S1132870491F561FC11D770F881F991F661F069495
S1132880A1F70590079428F4F80E491F561FC71F97
S1132890D11D880F991F661F771F0694A1F7059015
S11328A0079420F4490F561FC71FD81F990F661F9E
S11328B0771F881F0694A9F784911095177041F02B
S11328C0D695C79557954795F794E7941A95C1F708
S11328D0EEECF0E068941590159135916591959121
S11328E005907FE27395E118F10A430B560BC90B6F
S11328F0D009C0F7E10CF11E431F561FC91FD01D9C
S11329007EF4703311F48A95E6CFE894015030F0E8
S1132910080F0AF40027021708F4202F2395022F2A
S11329207A3328F079E37D932A95E9F710C07D93F3
S11329302A9589F606949795679537951795179470
S1132940E118F10A430B560BC90BD00998F02395F3
S11329507E9173957A3308F070E37C932013B8F773
S11329607E9170617D9330F0839571E37D9370E384
S11329702A95E1F71124EF90FF900F911F91CF91C9
S1132980DF91992787FD90950895FC01059061508A
S113299070400110D8F7809590958E0F9F1F089571
S11329A0FC016150704001900110D8F7809590951A
S11329B08E0F9F1F08950F931F93CF93DF93FB01F7
S11329C0238121FD03C08FEF9FEF2CC022FF16C08F
S11329D046815781248135814217530744F4A081ED
S11329E0B1819D012F5F3F4F318320838C932681DA
S11329F037812F5F3F4F3783268314C08B01EC014F
S1132A00FB010084F185E02D0995892BE1F6D801BD
S1132A1016968D919C911797019617969C938E9379
S1132A201697CE01DF91CF911F910F910895AEE0DB
S1132A30B0E0EDE1F5E10C94B0130D891E8986E058
S1132A408C831A8309838FEF9FE79E838D83AE0166
S1132A50475E5F4F6F89788DCE0101960E94E90F22
S1132A60EF81F885E00FF11F10822E96E4E00C94BC
S1132A70CC13FA01AA27283051F1203181F1E894CE
S1132A806F936E7F6E5F7F4F8F4F9F4FAF4FB1E05D
S1132A903ED0B4E03CD0670F781F891F9A1FA11D58
S1132AA0680F791F8A1F911DA11D6A0F711D811D59
S1132AB0911DA11D20D009F468943F912AE0269F1E
S1132AC011243019305D3193DEF6CF010895462F7D
S1132AD04770405D4193B3E00FD0C9F7F6CF462F5E
S1132AE04F70405D4A3318F0495D31FD40524193C7
S1132AF002D0A9F7EACFB4E0A69597958795779584
S1132B006795BA95C9F700976105710508959B010A
S1132B10AC010A2E06945795479537952795BA9593
S1132B20C9F7620F731F841F951FA01D0895F894A1
S1052B30FFCFD1
S1132B322578202564200925782025642009257814
S1132B4220256400256620092566200925662009BA
S1132B522566200925662009256600457865637582
S1132B6274696E67204D6F746F72203120636F6DCC
S1132B726D616E6400457865637574696E67204D96
S1132B826F746F72203220636F6D6D616E640045E5
S1132B927865637574696E67204D6F746F72203344
S1132BA220636F6D6D616E64004578656375746949
S1132BB26E67204D6F746F72203420636F6D6D6188
S1132BC26E6400546F67676C696E67206C6F672070
S1132BD26F6E2051756164636F707465720054681E
S1132BE2697320636F6D6D616E6420646F65732019
S1132BF26E6F742065786973743A203078000A0D18
S1132C02492072656365697665643A2030780043C9
S1132C126F6D6D616E6420496E6465782069733AE4
S1132C2220000A20436F6E6E656374656420746FBE
S1132C3220414E545348495620526F626F7469635F
S1132C4273204261736520576972656C65737320E2
S1132C5253746174696F6E0D0A0A20546F20737481
S1132C62617274206D6F746F7220656E7465722068
S1132C725B6D6F746F7220616464725D202B2073CC
S1132C827065656420696E20647574792063796364
S1132C926C652E0D0A20546F207374617274207354
S1132CA2656E736F722072656164696E67207374F6
S1132CB27265616D20656E746572205B73656E73F7
S1132CC26F7220616464725D2E20546F2073746F7E
S1132CD2702073656E736F7220656E746572203036
S1132CE2783066200A0D0A092030783031202D3ED2
S1132CF220486172642053746F700D0A0920307881
S1132D023032202D3E20466574636820416C6C206D
S1132D125261772072656164696E67730D0A0920D6
S1132D2230783033202D3E204665746368206779FD
S1132D32726F2072656164696E67730D0A092030CF
S1132D42783034202D3E20466574636820416363E5
S1132D52656C2072656164696E67730D0A092030BF
S1132D62783035202D3E2054657374204D6F746F76
S1132D72722031202B205265616C204475747920B5
S1132D824379636C65202D2034283029202D20318D
S1132D92302831303025290D0A0920307830362088
S1132DA22D3E2054657374204D6F746F722032204F
S1132DB22B205265616C2044757479204379636CCD
S1132DC265202D2034283029202D2031302831301F
S1132DD23025290D0A092030783037202D3E205421
S1132DE2657374204D6F746F722033202B205265EB
S1132DF2616C2044757479204379636C65202D20BD
S1132E0234283029202D2031302831303025290D25
S1132E120A092030783038202D3E205465737420FE
S1132E224D6F746F722034202B205265616C2044E4
S1132E32757479204379636C65202D2034283029F8
S1132E42202D2031302831303025290D0A09203037
S1132E52783039202D3E20486F7665720D0A09209C
S1132E6230783061202D3E204D6F7665205269679F
S1132E7268740D0A092030783062202D3E204D6F8F
S1132E827665204C6566740D0A092030783063201B
S1132E922D3E204D6F766520466F72776172640D08
S1132EA20A092030783064202D3E204D6F7665204B
S1132EB24261636B0D0A092030783065202D3E2073
S1132EC24C6F77657220646F776E0D0A0920307833
S1132ED23066202D3E2053746F702073656E736FBD
S1132EE2722073747265616D0D0A09203078313075
S1132EF2202D3E204D6F746F722031202B2044759B
S1132F027479204379636C65202830202D20313078
S1132F123025290D0A092030783131202D3E204DEB
S1132F226F746F722032202B204475747920437998
S1132F32636C65202830202D2031303025290D0A7C
S1132F42092030783132202D3E204D6F746F72206B
S1132F5233202B2044757479204379636C652028CF
S1132F6230202D2031303025290D0A0920307831C6
S1132F7233202D3E204D6F746F722034202B204459
S1132F82757479204379636C65202830202D2031B3
S1132F92303025290D0A092030783166202D3E2053
S1132FA25365742050574D204672657175656E6382
S1132FB279202D205072657363616C61720D0A0968
S1132FC22030783266202D3E20546F67676C65206E
S1132FD24C6F6767696E67204F4E2F4F4646200D30
S1132FE200E7E7E7E7E700000000B3091E0B540916
S1132FF270096209FB096E616E00696E66006F7684
S107300266002E0032
S9030000FC
